:1000000068C0C1C281C080C07FC07EC07DC07CC0CE
:100010007BC07AC079C078C077C076C075C0050152
:100020000906A1018501050719E029E71500250149
:1000300075019508810295067508256519002965E1
:100040008100C00600FF0901A1018502150026FFFD
:1000500000750895800900B20201C0050C0901A1D4
:10006000018503050C150125F0190029F075089587
:10007000018140C00403090412036F0062006400A0
:10008000650076002E0061007400140355005300D3
:100090004200520065006D006F007400650012019F
:1000A000100100000008C016DC050001010200017B
:1000B000090222000101008014090400000103006C
:1000C00000000921010100012256000705810308F3
:1000D000006411241FBECFE5D1E0DEBFCDBF10E02C
:1000E000A0E6B0E0EEEBF9E002C005900D92AC3670
:1000F000B107D9F710E0ACE6B0E001C01D92A63B15
:10010000B107E1F715D059C47BCFFC01808180761F
:10011000803261F48181813011F0893039F480E8D6
:1001200080937D0010927C008FEF089580E0089509
:100130000F931F93CF93DF9380E090E028D48F3FFD
:1001400009F081BF84D385D0B89A20E04DE150E119
:1001500003C0CA010197F1F72150D9F7B898B998AF
:100160007894C4E7D0E008E013E0A1D0B19B0EC0C2
:10017000B199FECF85EA70D3ABD380936D0084D361
:1001800080916D00893010F41092680080918B008E
:1001900084FFEBCF90916800923038F7FE01802FFA
:1001A00011928A95E9F7992359F410937400E0911C
:1001B0006D00F0E0E15AFF4F80818093750004C02C
:1001C000109374001092750010926D009F5F9093D1
:1001D000680084E790E068E049D0C7CFCF93DF9311
:1001E000EC018881882391F08981882379F082301D
:1001F00041F0833031F0843021F0853011F08630C9
:1002000029F484EA29D3898147D33ED381E0DF9161
:10021000CF910895CF93DF93EC0185EA1DD38AEF48
:1002200090E02CE931E0F9013197F1F70197D9F726
:1002300051D388834FD389834DD38A834BD38B8308
:1002400049D38C8345D38D831FD386E0DF91CF9133
:10025000089585B7826085BF8BB780648BBF8BE4C0
:1002600080938C008AE580938B0008951F93DC01B6
:10027000162F80918B0084FF07C080918C0098E836
:10028000892780938C0003C08AE580938B00912F8F
:10029000EDE8F0E08D9181939150E1F78DE890E0E9
:1002A000612F5AD11C5F10938B001F9108951F93EB
:1002B000CF93DF9360919C00635067FDBDC0809138
:1002C0009900CCE0D0E0C81BD109C056DF4F809127
:1002D00098008D3209F09EC0683009F0ABC083EC05
:1002E000809380008AE58093690010927F00888166
:1002F000807639F0CE0109DF282F8F3F09F479C0CD
:100300007FC09A81109289008981882321F41092FC
:100310008A0022E067C0853019F490939D0061C087
:10032000863009F04AC08B81813019F48EE990E063
:100330001BC0823041F480EB90E090939B0080934F
:100340009A0022E236C08330F9F48A81882341F48E
:1003500084E790E090939B0080939A0024E029C06A
:10036000813041F488E790E090939B0080939A005D
:1003700022E11FC08230E1F48AE890E090939B0074
:1003800080939A0024E115C0813241F482EC90E020
:1003900090939B0080939A0029E00BC0823241F435
:1003A0008EE190E090939B0080939A0026E501C037
:1003B00020E080E480937F0023C0883021F421E096
:1003C0008FE990E011C0893019F490939F0009C023
:1003D0008A3011F421E006C08B3019F48BE480934D
:1003E0008C0020E089E890E090939B0080939A0035
:1003F00007C0888187FD2E8180E880937F0006C03A
:100400008F81882319F48E81821708F0822F8093C0
:100410006A0010C080917F0087FF0CC0CE01DEDE35
:100420008F3F21F48EE18093690004C0882311F08E
:1004300010926A0010929C008091690084FF58C05D
:1004400080916A008F3F09F453C0182F893008F05B
:1004500018E0811B80936A008091800098E88927CA
:1004600080938000112391F180917F0087FF08C065
:1004700081E890E0612FCEDE182F893098F526C0F4
:1004800020919A0030919B0086FF0DC0A1E8B0E05A
:1004900080E090E0F901E80FF91FE491ED930196F7
:1004A0001817C1F708C0D901912FE1E8F0E08D914C
:1004B00081939150E1F71150812F90E01F5F0196D9
:1004C000820F931F90939B0080939A0081E890E0A5
:1004D000612F42D0612F6C5F6C3041F08FEF8093C1
:1004E0006A0004C08FEF80936A006EE16093690038
:1004F00094E186B3857031F49150D9F710929D0044
:100500001092970010E0992309F411E080917E0089
:10051000811749F0112329F4F9D161B780E090E007
:100520003ED210937E00DF91CF911F910895A82FA6
:10053000B92F80E090E041E050EA609530E009C0DA
:100540002D9182279795879510F084279527305E07
:10055000C8F36F5FA8F30895EADF8D939D93089524
:10056000A6E088279927AA9569F00197E1F3B09949
:10057000FCCFB09BFECF81E09927A6B3019611F086
:10058000A570D9F70895CF93CFB7CF93C395B09BFC
:10059000E9F7B09B0BC0B09B09C0B09B07C0B09BF4
:1005A00005C0B09B03C0B09B01C0D5C00F92DF93C4
:1005B000C0919900DD27C056DF4F012EB09B03C0CC
:1005C000DF910F90E6CF2F930F931F934F932FEF51
:1005D0004F6F06B300FB20F95F933F9350E03BE081
:1005E00065C016B30126502950FDC89556B30127A2
:1005F00000FB25F92F7306B3B1F05027102710FB2D
:1006000026F906B22230F0F000C016B3012700FB35
:1006100027F90126502906B22430E8F54F772068E3
:1006200016B30000F6CF50274F7D206206B2102F80
:10063000000000C006B300265029102710FB26F941
:1006400006B2E2CF4F7B06B3206400C0DACF0126AA
:100650005029157006B269F14E7F2160012F16B343
:1006600028C0002650294D7F06B22260102F29C0D5
:10067000012650294B7F06B22460012F2DC016B3EE
:1006800001265029477F2860000006B22EC04F7E09
:1006900006B3206130C0422706B349930026502993
:1006A000102706B24FEF10FB20F9297F16B379F21D
:1006B000157059F10126502906B2012700FB21F9D6
:1006C000237F06B371F2002650293150D0F006B2D4
:1006D000102710FB22F9277E16B351F2012650296C
:1006E000012700FB06B223F92F7C49F2000006B374
:1006F000102710FB24F90026502906B22F7939F271
:1007000070CF10E41ABF002719C03B503195C31BAE
:10071000D04010E41ABF0881033C09F10B34F9F012
:10072000209197001981110F1213EDCF4A81441FB8
:10073000093651F10D3211F0013E29F700939E0068
:100740003F915F914F911F910F912F91DF910F90EA
:10075000CAB7C6FD1BCFCF91CFBFCF9118952091BF
:100760009E00222369F310919C00112379F5343007
:100770007AF130939C0020939800109199003BE00F
:10078000311B3093990024C000919C000130F4F497
:100790000AE54F7049F43091690034FD1AC00093A6
:1007A0006900C0E8D0E019C030918B0034FD11C061
:1007B00000938B00CCE8D0E010C0052710E000C00B
:1007C00021C0052710E0C89508BB14C03AE501C058
:1007D00032ED032EC0E0D0E032E017B31560C09ACE
:1007E00008B317BB55E020E84FEF20FF052708BBF3
:1007F000279517951C3F28F700004552B0F720FFBA
:100800000527279508BB17951C3FB8F629913A95FF
:1008100061F70A7F10919D00110F08BBC250D040B4
:1008200011F01093970010E41ABF016017B31A7FFC
:10083000402F4A7F54E05A95F1F708BB17BB48BBDD
:100840007FCF00E003950032E9F700000895BB98E0
:10085000BC98C398C4980895BB9AF3DF1DD008953F
:10086000BC9AEFDFBB98EDDFBC98EBDFBB9AE9DF0A
:1008700013D00895082EBB9AE4DF802D0DD0882375
:1008800011F002D0F8CF0895BC9ABB9ADADFBC9879
:10089000D8DFBB98D6DF08950894881F01C0880F61
:1008A00059F0BC9A18F40000BB9802C0BB9A00C073
:1008B000C8DFBC98C6DFF3CFBC9ABB98C2DFBC9838
:1008C000B49BFECF8827B39981E0BBDF99270895B9
:1008D000882701C081E071E0BC9ABB98B2DFBC9868
:1008E000B0DFB49BFECF8894B3990894771FA0F72C
:1008F000BC9A813011F0BB9801C0BB9AA2DFBC98B2
:10090000B49BFECF9EDF872F99270895EF92FF9229
:100910000F931F93CF93DF9380E8F82E00E0C0E0A1
:10092000D0E0102F1F0D11BF1BDE9C0189E0243386
:1009300038070CF0102FF6942196C830D10511F02D
:10094000012FEFCF115011BF1F5F7901C12FD0E0F0
:10095000219610C005DE8453994097FF03C09095FF
:1009600081959F4F8E159F0514F411B77C0181B7B7
:100970008F5F81BF81B790E0C817D9075CF711BFBF
:10098000DF91CF911F910F91FF90EF900895E19922
:10099000FECF1FBA8EBBE09A99278DB30895262FFC
:1009A000E199FECF1CBA1FBA8EBB2DBB0FB6F894CF
:0E09B000E29AE19A0FBE01960895F894FFCFE7
:0C09BE00E9EAE2B0B1B5B6B7025AFF009A
:00000001FF
